:020000040800F2
:1000000078060020CD01000819040008AB030008A1
:10001000DD03000887020008130A00080000000042
:10002000000000000000000000000000C5050008FE
:100030008B02000800000000A1040008DD06000893
:10004000E7010008E7010008E7010008E7010008F0
:10005000E7010008E7010008E7010008E7010008E0
:10006000E7010008E7010008E7010008E7010008D0
:10007000E7010008E7010008E7010008E7010008C0
:10008000E7010008E7010008E7010008E7010008B0
:10009000E7010008E7010008E7010008E7010008A0
:1000A000E7010008E7010008E7010008E701000890
:1000B000E7010008E7010008E7010008E701000880
:1000C000E7010008E7010008E7010008E701000870
:1000D000E7010008C9070008E7010008E701000878
:1000E000E7010008E7010008E7010008E701000850
:1000F000E7010008E7010008E7010008E701000840
:10010000E7010008E7010008E7010008E70100082F
:10011000E7010008E7010008E7010008E70100081F
:10012000E7010008E7010008E7010008E70100080F
:1001300000F002F800F03AF80AA090E8000C8244BF
:100140008344AAF10107DA4501D100F02FF8AFF29C
:10015000090EBAE80F0013F0010F18BFFB1A43F0A5
:1001600001031847AC090000CC090000103A24BF75
:1001700078C878C1FAD8520724BF30C830C144BF0C
:1001800004680C607047000000230024002500264E
:10019000103A28BF78C1FBD8520728BF30C148BFEA
:1001A0000B6070471FB51FBD10B510BD00F031F8D2
:1001B0001146FFF7F7FF00F02FFC00F04FF803B4F3
:1001C000FFF7F2FF03BC00F057F800000948804732
:1001D00009480047FEE7FEE7FEE7FEE7FEE7FEE729
:1001E000FEE7FEE7FEE7FEE704480549054A064B41
:1001F00070470000E1060008310100087800002087
:1002000078060020780200207802002070477047AE
:100210007047754600F02CF8AE4605006946534617
:1002200020F00700854618B020B5FFF7DDFFBDE8D8
:1002300020404FF000064FF000074FF000084FF04D
:10024000000B21F00701AC46ACE8C009ACE8C009DE
:10025000ACE8C009ACE8C0098D46704710B504464B
:10026000AFF300802046BDE81040FFF7A8BF0000B4
:10027000004870471800002001491820ABBEFEE777
:1002800026000200704700BFFEE770472DE9F041ED
:10029000024600250026002000230024002791F8B4
:1002A00003C00CF00F0591F803C00CF0100CBCF16A
:1002B000000F03D091F802C04CEA050591F800C088
:1002C000BCF1000F31D0146800202BE04FF0010C7E
:1002D0000CFA00F3B1F800C00CEA03069E4220D1EC
:1002E00083004FF00F0C0CFA03F7BC4305FA03FC34
:1002F0004CEA040491F803C0BCF1280F06D14FF07A
:10030000010C0CFA00FCC2F814C00AE091F803C01A
:10031000BCF1480F05D14FF0010C0CFA00FCC2F8FB
:1003200010C0401C0828D1D31460B1F800C0BCF143
:10033000FF0F34DD546800202EE000F1080C4FF070
:10034000010808FA0CF3B1F800C00CEA03069E425B
:1003500021D183004FF00F0C0CFA03F7BC4305FAD0
:1003600003FC4CEA040491F803C0BCF1280F05D14A
:1003700000F1080C08FA0CF8C2F8148091F803C0D8
:10038000BCF1480F07D100F1080C4FF0010808FA42
:100390000CF8C2F81080401C0828CED35460BDE889
:1003A000F081416170470161704700BFFEE70000C6
:1003B00010B54FF480710848FFF7F3FF4FF4007158
:1003C0000548FFF7F0FF20210348FFF7EAFF40212F
:1003D0000148FFF7E8FF10BD000C014000BFFEE739
:1003E00008B50121082000F05DF84FF45870ADF811
:1003F000000003208DF8020010208DF803006946EC
:100400000448FFF743FF4FF458710248FFF7CBFF52
:1004100008BD0000000C01407047000070B50021CD
:1004200000230F22C47804B3154C246804F4E0645C
:10043000C4F5E064210AC1F10403CA40447804FA17
:1004400003F184781440214309010E4C0678A1552C
:10045000047804F01F050124AC4005786D11AD004F
:1004600005F1E025C5F8004109E0047804F01F0516
:100470000124AC40044D0678761145F8264070BD45
:100480000CED00E000E400E080E100E002490143FF
:10049000024A1160704700000000FA050CED00E010
:1004A0007047000029B1064A92690243044B9A61E1
:1004B00004E0034A92698243014B9A61704700004D
:1004C0000010024030B500210022002400232D4DF1
:1004D0006D6805F00C0121B1042905D0082923D14C
:1004E00005E0294D056022E0274D05601FE0254D00
:1004F0006D6805F47012234D6D6805F48034022593
:1005000005EB92421CB9214D554305600BE01D4D92
:100510006D6805F400351DB11C4D5543056002E0C2
:10052000194D5543056002E0174D056000BF00BF3F
:10053000144D6D6805F0F0010909154D6B5C0568F7
:10054000DD4045600F4D6D6805F4E061090A104D0E
:100550006B5C4568DD4085600A4D6D6805F460514F
:10056000C90A0B4D6B5C4568DD40C560054D6D6883
:1005700005F44041890B074D6B5CC568B5FBF3F58D
:10058000056130BD0010024000127A0000093D00F4
:10059000020000201200002010B54FF480710848BE
:1005A000FFF701FF4FF400710548FFF7FAFE202125
:1005B0000348FFF7F6FE40210148FFF7F4FE10BDA7
:1005C000000C0140704710B500F002F810BD0000AB
:1005D0000CB50020019000903348006840F4803052
:1005E0003149086000BF3048006800F400300090D6
:1005F0000198401C0190009818B90198B0F5A06FBF
:10060000F1D12948006800F4003010B101200090B9
:1006100001E0002000900098012843D123480068A1
:1006200040F01000214908600846006820F00300EF
:1006300008600846006840F0020008601A484068F8
:10064000194948600846406848600846406840F4D8
:10065000806048600846406820F47C104860084686
:10066000406840F4E81048600846006840F0807038
:10067000086000BF0C48006800F000700028F9D046
:100680000948406820F00300074948600846406870
:1006900040F00200486000BF0348406800F00C00D2
:1006A0000828F9D10CBD00000010024000200240D3
:1006B00010B54FF480710848FFF775FE4FF40071D4
:1006C0000548FFF770FE20210348FFF76CFE40212C
:1006D0000148FFF768FE10BD000C014070470000A4
:1006E00010B51348006840F0010011490860084641
:1006F0004068104908400E494860084600680E49A5
:1007000008400B4908600846006820F48020086013
:100710000846406820F4FE0048604FF41F008860DF
:10072000FFF751FF4FF000600449086010BD000062
:10073000001002400000FFF8FFFFF6FE08ED00E0A9
:1007400010B520210348FFF72CFE40210148FFF798
:100750002AFE10BD000C014010B520210348FFF710
:1007600022FE40210148FFF71CFE10BD000C014095
:1007700010B54FF480710848FFF713FE4FF4007175
:100780000548FFF710FE20210348FFF70CFE40212B
:100790000148FFF706FE10BD000C014010B54FF4F4
:1007A00080710848FFF7FFFD4FF400710548FFF71F
:1007B000F8FD20210348FFF7F6FD40210148FFF72F
:1007C000F0FD10BD000C014010B540F2255120484D
:1007D00000F05FF801283AD140F225511C4800F0A2
:1007E0003DF81B4800F010F91A49087008460078D7
:1007F000302802D1002018490870164800783128A6
:1008000002D101201449087012480078322802D120
:100810000220114908700F480078332802D10320C4
:100820000D4908700B480078342802D104200A4989
:10083000087008480078352802D10520064908705C
:1008400004480078362802D106200349087010BDFC
:1008500000380140000000200100002010B50022F7
:10086000002340F66A14A14200D100BF0A120124FD
:100870009440A3B2DC43048010BD21B1828942F4CC
:100880000052828104E082894DF6FF731A40828112
:10089000704770B50246002400230025002040F672
:1008A0006A16B14200D100BFC1F3421501F01F0327
:1008B000012606FA03F3012D02D19689334006E0A2
:1008C000022D02D1168A334001E0968A33400C1281
:1008D000012606FA04F41688344013B10CB1012045
:1008E00000E0002070BDF0B503460024002600257E
:1008F000002040F66A17B94200D100BF1846C1F384
:10090000421401F01F06012707FA06F5012C01D158
:100910000C3004E0022C01D1103000E014301AB188
:1009200007682F43076002E00768AF430760F0BD28
:100930002DE9F04786B005460E460024A24600BFCA
:10094000A1460027B08900B100BF2F462C8A4CF683
:10095000FF700440F08804432C82AC894EF6F310FB
:100960000440B08831890843718908430443AC814D
:10097000AC8A4FF6FF400440B0890443AC8201A822
:10098000FFF7A0FD1F48874202D1DDF810A001E06B
:10099000DDF80CA0A88900F4004040B10AEBCA00C1
:1009A00000EB0A1031684900B0FBF1F807E00AEBF0
:1009B000CA0000EB0A1031688900B0FBF1F864202E
:1009C000B8FBF0F004012009642101FB1089A8891B
:1009D00000F4004040B1322000EBC900B0FBF1F060
:1009E00000F00700044308E0322000EB0910642106
:1009F000B0FBF1F000F00F0004432C8106B0BDE81D
:100A0000F08700000038014001468888C0F30800E4
:100A1000704700BFFEE7000086B0012144F20400E9
:100A2000FFF740FD4FF40070ADF8140003208DF87F
:100A3000160018208DF8170005A93248FFF726FC8C
:100A40004FF48060ADF8140004208DF8170005A95C
:100A50002C48FFF71BFC4FF4165001900020ADF816
:100A60000800ADF80A00ADF80C00ADF810000C203D
:100A7000ADF80E0001A92448FFF75AFF012240F209
:100A800025512148FFF72FFF4FF4A060FFF7FEFC30
:100A900025208DF8000003208DF801008DF802005C
:100AA00001208DF803006846FFF7B8FC01211648C5
:100AB000FFF7E3FEFFF794FC22E0144800780728D4
:100AC0001AD2DFE800F004070A0D10131600FFF732
:100AD000EFFD14E0FFF74CFE11E0FFF75FFE0EE0C4
:100AE000FFF72EFE0BE0FFF737FE08E0FFF760FC94
:100AF00005E0FFF751FD02E0FFF7DAFD00BF00BFA0
:100B0000DBE7000000080140003801400100002040
:100B1000300B000800000020180000006C010008E5
:100B2000480B00081800002060060000880100083B
:100B30000000000000000102030401020304060794
:080B4000080902040608000088
:0400000508000131BD
:00000001FF
